:100000000C94DF000C9407010C9407010C94070179
:100010000C9407010C9407010C9407010C94070140
:100020000C9407010C9407010C9407010C94070130
:100030000C9407010C9407010C9407010C94070120
:100040000C9422130C9407010C94F0120C94CA1215
:100050000C9407010C9407010C9407010C94070100
:100060000C946C130C94070100407A10F35A00A012
:10007000724E18090010A5D4E80000E87648170071
:1000800000E40B54020000CA9A3B000000E1F505B1
:10009000000080969800000040420F000000A086FB
:1000A00001000000102700000000E803000000002D
:1000B0006400000000000A000000000001000000D1
:1000C00000002C76D888DC674F0823DFC1DFAE59EB
:1000D000E1B1B796E5E3E453C63AE651997696E87E
:1000E000E6C28426EB898C9B62ED407C6FFCEFBC02
:1000F0009C9F40F2BAA56FA5F490055A2AF75C932D
:100100006B6CF9676DC11BFCE0E40D47FEF520E662
:10011000B500D0ED902E0300943577050080841E45
:10012000080000204E0A000000C80C333333330FA0
:10013000986E12831141EF8D2114893BE65516CF3D
:10014000FEE6DB18D1844B381BF77C1D901DA4BB49
:10015000E424203284725E228100C9F124ECA1E5FE
:100160003D2700000000240027002A0000000000B6
:10017000250028002B000000000023002600290095
:10018000040404040404040402020202020203033D
:100190000303030301020408102040800102040845
:1001A00010200102040810200000000800020100D5
:1001B0000003040700000000000000008B1411245D
:1001C0001FBECFEFD8E0DEBFCDBF27E0A2ECB5E089
:1001D00001C01D92A634B207E1F715E0A0E0B1E03E
:1001E000EAE9FEE302C005900D92A23CB107D9F7FF
:1001F00010E0CFEDD0E004C02197FE010E94421D27
:10020000CE3DD107C9F70E94CD140C944B1F0C941E
:10021000000008950895DC0114962D913C911597E6
:10022000232B31F0ED91FC91309711F080810895EE
:1002300080E00895AF92BF92CF92DF92EF92FF924B
:100240000F931F93CF93DF936C017B018B01040FFE
:10025000151FEB015E01AE18BF08C017D10759F09A
:100260006991D601ED91FC910190F081E02DC601DC
:100270000995892B79F7C501DF91CF911F910F91D6
:10028000FF90EF90DF90CF90BF90AF900895FC016A
:10029000448155816081718183E996E00C941A0153
:1002A000FC01538D448D252F30E0842F90E0821B7C
:1002B000930B541710F0CF96089501970895FC0101
:1002C000918D828D981761F0A28DAE0FBF2FB11D59
:1002D0005D968C91928D9F5F9F73928F90E00895B1
:1002E0008FEF9FEF0895FC01918D828D981731F06B
:1002F000828DE80FF11D858D90E008958FEF9FEFBF
:100300000895FC01918D228D892F90E0805C9F4F94
:10031000821B91098F739927089583E996E00E94C3
:10032000810121E0892B09F420E0822F089580E0EB
:1003300090E0892B29F00E948D0181110C9400001E
:100340000895FC01A48DA80FB92FB11DA35ABF4F6A
:100350002C91848D90E001968F739927848FA689C4
:10036000B7892C93A089B1898C91837080648C9318
:10037000938D848D981306C00288F389E02D8081C7
:100380008F7D80830895EF92FF920F931F93CF93F9
:10039000DF93EC0181E0888F9B8D8C8D98131AC0C0
:1003A000E889F989808185FF15C09FB7F894EE89A7
:1003B000FF896083E889F989808183708064808304
:1003C0009FBF81E090E0DF91CF911F910F91FF904F
:1003D000EF900895F62E0B8D10E00F5F1F4F0F73F7
:1003E0001127E02E8C8D8E110CC00FB607FCFACFB2
:1003F000E889F989808185FFF5CFCE010E94A101AE
:10040000F1CFEB8DEC0FFD2FF11DE35AFF4FF08282
:100410009FB7F8940B8FEA89FB8980818062CFCFE8
:10042000682F83E996E00C94C301CF93DF93EC012E
:10043000888D8823B9F0AA89BB89E889F9898C91CC
:1004400085FD03C0808186FD0DC00FB607FCF7CF88
:100450008C9185FFF2CF808185FFEDCFCE010E9488
:10046000A101E9CFDF91CF910895833081F028F485
:10047000813099F08230A9F008958730A9F0883052
:10048000C9F08430B1F4809180008F7D03C08091E9
:1004900080008F7780938000089584B58F7784BD26
:1004A000089584B58F7DFBCF8091B0008F778093C6
:1004B000B00008958091B0008F7DF9CF1F93CF9346
:1004C000DF93282F30E0F901E855FE4F8491F901C0
:1004D000EC56FE4FD491F901E058FE4FC491CC2365
:1004E000A9F0162F81110E943502EC2FF0E0EE0FDB
:1004F000FF1FE459FE4FA591B4918FB7F894EC918A
:10050000111108C0D095DE23DC938FBFDF91CF910E
:100510001F910895DE2BF8CFCF93DF9390E0FC017D
:10052000EC56FE4F249180589E4FFC018491882305
:10053000D1F090E0880F991FFC01EE59FE4FA59174
:10054000B491FC01E459FE4FC591D491623071F42D
:100550009FB7F8943C91822F809583238C93E881F8
:100560002E2B28839FBFDF91CF9108958FB7F894EA
:10057000EC912E2B2C938FBFF6CF3FB7F894809140
:100580000C0690910D06A0910E06B0910F0626B5AF
:10059000A89B05C02F3F19F00196A11DB11D3FBFBB
:1005A000BA2FA92F982F8827BC01CD01620F711D8A
:1005B000811D911D42E0660F771F881F991F4A9584
:1005C000D1F708958F929F92AF92BF92CF92DF9210
:1005D000EF92FF924B015C010E94BD026B017C0116
:1005E0000E94BD026C197D098E099F09683E734007
:1005F00081059105A8F321E0821A9108A108B108AC
:1006000088EEC80E83E0D81EE11CF11C8114910411
:10061000A104B10429F7FF90EF90DF90CF90BF9035
:10062000AF909F908F9008952FB7F894609108062F
:100630007091090680910A0690910B062FBF0895CC
:100640000F931F930E94140360939B0670939C0664
:1006500080939D0690939E0683E996E00E945F0139
:1006600097FF1DC00E94140300919B0610919C06E9
:1006700020919D0630919E06601B710B820B930B9F
:1006800000919706109198062091990630919A064C
:100690006017710782079307F8F28FEF9FEF1F91A2
:1006A0000F9108950F931F930E94140360939B066C
:1006B00070939C0680939D0690939E0683E996E036
:1006C0000E94730197FF1DC00E94140300919B06B6
:1006D00010919C0620919D0630919E06601B710B27
:1006E000820B930B00919706109198062091990622
:1006F00030919A066017710782079307F8F28FEF1F
:100700009FEF1F910F9108952091E405260F332745
:10071000331F21323105ECF420916906FC0190E091
:1007200080E0243069F082E00895A091E4052191F1
:10073000AC014C535A4FA40FB52FB11D2C93019609
:10074000861798F38091E405680F6093E40580E0D4
:10075000089581E008951092690681E0809368060B
:100760001092430661E082E10E945E0261E083E153
:100770000E945E02E9EBF0E080818E7F80838081C1
:100780008D7F808388E48093B80085E48093BC00EB
:100790000895CF93DF9391E09093C3058823B9F038
:1007A000C091B800D091BA008091BC008A7B809340
:1007B000BC0060E082E10E945E0260E083E10E9492
:1007C0005E020E94AB03D093BA00C093B800DF91E1
:1007D000CF9108958F929F92AF92BF92CF92DF9266
:1007E000EF92FF920F931F93CF93DF93D0919206D6
:1007F000D13208F0D7C0182FC09191060E94BD02D7
:100800006B017C018091690681116BC082E080934D
:100810006906109368068FEF80936706109266064C
:10082000D0936506A1E7B6E0E5E4F6E080E0D813F2
:1008300091C01092440680914406CC0FC82BC093FF
:10084000440680914306813009F088C01092430627
:100850000E94BD026B017C01809144068093BB0025
:1008600080916B0690916C06A0916D06B0916E061A
:10087000892B8A2B8B2BA1F00E94BD0200916B0665
:1008800010916C0620916D0630916E066C197D09F1
:100890008E099F09061717072807390708F442C071
:1008A0008091BC0083FDD8CF85EC8093BC000E9472
:1008B000BD026B017C0180916906823009F450C051
:1008C000809167068F3F09F46FC080916706803280
:1008D00009F46CC080916706803309F469C084E034
:1008E00026C080916B0690916C06A0916D06B09128
:1008F0006E06892B8A2B8B2B09F484CF0E94BD02B4
:1009000080906B0690906C06A0906D06B0906E067D
:100910006C197D098E099F0986169706A806B906E7
:1009200008F070CF80916A060E94C90385E010929A
:1009300070061092920610926F06DF91CF911F9170
:100940000F91FF90EF90DF90CF90BF90AF909F906E
:100950008F9008959D9191938F5F69CF85EEA5CF7C
:1009600080916B0690916C06A0916D06B0916E0619
:10097000892B8A2B8B2B09F49ECF0E94BD020091FC
:100980006B0610916C0620916D0630916E066C1905
:100990007D098E099F09061717072807390708F0F0
:1009A0008ACFC0CF81E0C3CF80E0C1CF82E0BFCF8C
:1009B00083E0BDCF0895E091220680912106E817DB
:1009C00030F4F0E0ED5DF94F808190E008958FEF15
:1009D0009FEF089590912206809121062FEF3FEF1F
:1009E000981748F4E92FF0E0ED5DF94F208130E0F1
:1009F0009F5F90932206C9010895809121069091EE
:100A00002206891B990B0895CF92DF92EF92FF92F5
:100A10000F931F93CF93DF937C01CB018A01209129
:100A20006F06222389F0EB016B01C40ED51ECC1595
:100A3000DD0569F06991D701ED91FC910190F0819C
:100A4000E02DC7010995F3CF642F0E948403C801EC
:100A5000DF91CF911F910F91FF90EF90DF90CF909A
:100A60000895CF93DF931F92CDB7DEB769832091AE
:100A70006F062223F9F020919206203258F021E0EF
:100A800030E0FC013383228390E080E00F90DF911F
:100A9000CF91089580917006E82FF0E0EF58F94F5C
:100AA000998190838F5F809370068093920681E096
:100AB00090E0ECCF61E0CE0101960E948403F7CF75
:100AC00090E080E008951F93CF93DF93EA01122F07
:100AD000DC0111968D919C91DC01ED91FC910280DD
:100AE000F381E02D0995C817D90729F4812F0E94B9
:100AF000EA0391E0811190E0892FDF91CF911F915E
:100B00000895CF93DF93EC018B818823A1F0888136
:100B100091E090936F068093910610927006109268
:100B2000920681E00E94EA0391E0811190E0892F12
:100B3000DF91CF9108951092220610922106109213
:100B40007006109292060E94AB0389E091E09093A8
:100B5000200680931F068AE091E090931E06809302
:100B60001D0681E08B83CE010E948105982F8111A3
:100B7000CECFDDCFFC0101900020E9F73197AF0126
:100B8000481B590BBC0183E996E00C941A0189EAD1
:100B900091E00C94BA05CF93DF930E944701EC01DA
:100BA0000E94C7058C0F9D1FDF91CF9108958F92F2
:100BB0009F92AF92BF920F931F93CF93DF93CDB7C6
:100BC000DEB7A1970FB6F894DEBF0FBECDBF19A256
:100BD000423008F44AE08E010F5D1F4F842E912CA5
:100BE000B12CA12CA50194010E940C1DE62FB90186
:100BF000CA01EA30F4F4E05DD801EE938D01232BB5
:100C0000242B252B79F790E080E0109719F0CD0187
:100C10000E94BA05A1960FB6F894DEBF0FBECDBFF5
:100C2000DF91CF911F910F91BF90AF909F908F90C8
:100C30000895E95CE1CFCF93DF930E94BA05EC0100
:100C40000E94C7058C0F9D1FDF91CF9108958CEAFC
:100C500091E00E941B0664E670E080E090E00E9454
:100C6000E202F0E0E0E009940C94BA05CF93DF9340
:100C700000D0CDB7DEB7806889836A8380913C0756
:100C800090913D07FC01248135812230310590F09F
:100C9000208131E030936F06209391061092700608
:100CA0001092920621E042E050E0BE016F5F7F4F5C
:100CB0000E9463050F900F90DF91CF9108952F92BE
:100CC0003F924F925F926F927F928F929F92AF92DC
:100CD000BF92CF92DF92EF92FF920F931F93CF9329
:100CE000DF93DC011496ED91FC911597EF2B09F43D
:100CF00025C169012A01EC01888191E090936F067A
:100D000080939106109270061092920620E041E0C6
:100D100050E0CD010E946305782E882309F40EC1AE
:100D2000F12CE12C332433948C819D8186010E19A2
:100D30001F098017910708F48C0128800E94BD02CA
:100D40004B015C0180916906811173C0602EB0E295
:100D5000B01710F480E2682E3092690621E0C601D7
:100D6000801B910BE816F90608F420E02093680632
:100D7000EFEFE0936706109266068FEF860D809383
:100D800065063092440680914406220C282A20925F
:100D9000440680914306813009F090C010924306CA
:100DA0000E94BD024B015C01809144068093BB0010
:100DB00080916B0690916C06A0916D06B0916E06C5
:100DC000892B8A2B8B2BA1F00E94BD0220916B06F0
:100DD00030916C0640916D0650916E066819790944
:100DE0008A099B09261737074807590708F442C0A4
:100DF0008091BC0083FDD8CFF5ECF093BC000E943D
:100E0000BD024B015C0180916906813009F45AC032
:100E100080916606861510F460906606A5E4B6E03B
:100E2000E3E2F6E080E0861551F19D9191938F5FAA
:100E3000FACF80916B0690916C06A0916D06B091EF
:100E40006E06892B8A2B8B2B09F47CCF0E94BD0266
:100E500020916B0630916C0640916D0650916E06A4
:100E6000681979098A099B0926173707480759071E
:100E700008F068CF80916A060E94C903612C109225
:100E80002206609221066016110609F057C0420141
:100E90008E0C9F1C5401C501881999098017910770
:100EA00098F589819A81DC01ED91FC910284F385AA
:100EB000E02D0995F50181935F01EDCF85EE8093DB
:100EC000BC009DCF80916B0690916C06A0916D0641
:100ED000B0916E06892B8A2B8B2B09F494CF0E943C
:100EE000BD0220916B0630916C0640916D065091C9
:100EF0006E06681979098A099B092617370748077A
:100F0000590708F080CFB6CFE00EF11EEC14FD04B7
:100F100008F40ACF872DDF91CF911F910F91FF9099
:100F2000EF90DF90CF90BF90AF909F908F907F9089
:100F30006F905F904F903F902F900895712CEACF63
:100F4000CF93DF9300D0CDB7DEB71A8219828068C5
:100F5000898322E030E0AE014F5F5F4FBA0180919C
:100F60003C0790913D070E945F0689819A810F900E
:100F70000F90DF91CF910895682F70E090E080E0AE
:100F80004AE00C94D7050F931F93CF93DF93182F4C
:100F9000062FEA0188818C3449F5611708F046C0B4
:100FA000CA010E94340689EB91E00E943406812F29
:100FB0000E94BC0789E595E00E9434068BEB91E026
:100FC0000E94340689810E94100289EB91E00E9400
:100FD0003406802F0E94BC0789E595E00E941B061D
:100FE00080E0DF91CF911F910F9108958834E9F44B
:100FF0006117E0F4CA010E94340689EB91E00E9477
:101000003406802F0E94BC0789E595E00E943406D3
:1010100084ED91E00E94340689810E94100289EBE0
:1010200091E00E943406812FD5CFDBCF81E0D9CF6C
:10103000CF92DF92EF92FF92CF93DF936C01990FE3
:10104000EE08FF08F7FE1BC08DE20E941002EC01C3
:1010500066277727CB016C197D098E099F094AE025
:101060000E94D705C80FD91F0E94C7058C0F9D1F6E
:10107000DF91CF91FF90EF90DF90CF9008954AE0FD
:10108000C701B6010E94D705EC01EECFCF93DF93E5
:10109000EC0188819981009711F00E94E41D19826A
:1010A00018821D821C821B821A82DF91CF910895C3
:1010B000FC0180819181009711F00C94E41D08954A
:1010C0000F931F93CF93DF931F92CDB7DEB780911D
:1010D0003C0790913D07009711F00E94E41D86E0C7
:1010E00090E00E94481D8C0189E2F801808380E332
:1010F00097E092838183138280E290E095838483DA
:1011000010933D0700933C0710922206109221068F
:1011100010927006109292060E94AB0389E091E053
:101120009093200680931F068AE091E090931E061C
:1011300080931D0681E0F8018383C8010E94810528
:10114000182F811108C010E0812F0F90DF91CF91EF
:101150001F910F91089582E9898321E030E0AE016B
:101160004F5F5F4FBA0180913C0790913D070E940D
:101170005F0689818D3421F0843411F0803119F7B4
:1011800081E080933E07809141070E94F40880919E
:101190003F07909140070E94040961E080E00E94AF
:1011A000360663E070E080E090E00E94E20263E0D7
:1011B00080E00E9436068091410720E031E0281B44
:1011C00031094CE0429FC001439F900D112465E01E
:1011D00070E00E94F81C6F5F7F4F072E000C880B99
:1011E000990B0E94E202B0CFCF93C82F80913E07A7
:1011F000811102C00E9460086C2F81E00E943606B7
:10120000C0934107CF910895CF93DF93EC01809174
:101210003E07811102C00E9460086C2F8FE00E947F
:101220003606C0933F07D0934007DF91CF910895D2
:10123000CF93DF93FC01C081D181209761F0899128
:10124000882349F0082E000C990B0E942A1FFE01EA
:1012500031978083F4CFDF91CF910895AF92BF9201
:10126000CF92DF92EF92FF920F931F93CF93DF9372
:10127000DC01CD90DC901197C114D10439F01496A3
:10128000CD91DC918C017601209761F4DF91CF91B3
:101290001F910F91FF90EF90DF90CF90BF90AF9094
:1012A000089575015701BFEFAB1ABB0AF7018081A2
:1012B000082E000C990B0E943C1A892B91F721975C
:1012C000CC0DDD1D8881082E000C990B0E943C1A64
:1012D000892B29F0CE15DF0510F02197F3CFAE0151
:1012E0004F5F5F4F4E195F09D80115965C934E937F
:1012F0001497CE14DF0420F4B701C6010E94321FF8
:10130000D801ED91FC91119714968D919C91E80F65
:10131000F91F1082BBCFFC0124813581232B39F4C6
:1013200021E0FB018081882349F020E007C0808113
:1013300091810E943B1F21E0892BB9F7822F0895EC
:10134000CF93DF93EC01A881B981EB01E881F981AA
:101350001097F1F03097B1F4EC018C819D81892BCD
:10136000C9F08C9190E00BC0DB0114968D919C919B
:10137000892B81F0808190E0919581959109DF9191
:10138000CF910895BF01CD01DF91CF910C943B1F08
:10139000309751F790E080E0F2CF0F931F93CF93F7
:1013A000DF93EC0188819981009759F02A813B8174
:1013B0002617370730F081E0DF91CF911F910F9111
:1013C00008958B016F5F7F4F0E946D1E009759F04B
:1013D000998388831B830A832C813D81232B59F7B2
:1013E000FC011082E8CF80E0E7CFEF92FF920F93ED
:1013F0001F93CF93DF936115710541F480E0DF9176
:10140000CF911F910F91FF90EF90089541155105D5
:10141000B1F07B01EC010C811D81040F151FB80197
:101420000E94CD09882351F3288139818C819D81C7
:10143000B701820F931F0E94441F1D830C8381E01C
:10144000DECFCF93DF93EC01FB0101900020E9F7A1
:101450003197AF01461B570B0E94F509811103C05C
:10146000CE010E944608CE01DF91CF910895CF931F
:10147000DF93EC01FB0144815581608171810E9401
:10148000F509811103C0CE010E944608CE01DF910B
:10149000CF910895EF92FF920F931F93CF93DF9315
:1014A000EC017B018A01BA010E94CD0981110BC0B8
:1014B000CE010E944608CE01DF91CF911F910F917E
:1014C000FF90EF9008951D830C83B7018881998167
:1014D0000E94441FF0CFFB0101900020E9F73197F3
:1014E000AF01461B570B0C944A0A0F931F93CF93DF
:1014F000DF93CDB7DEB7A1970FB6F894DEBF0FBE6E
:10150000CDBF8C01CB01BA01F80111821082138288
:101510001282158214822AE0AE014F5F5F4F0E9453
:10152000C917BE016F5F7F4FC8010E946B0AA19669
:101530000FB6F894DEBF0FBECDBFDF91CF911F91E4
:101540000F9108950F931F93CF93DF93CDB7DEB71D
:1015500029970FB6F894DEBF0FBECDBF8C01862F42
:10156000F8011182108213821282158214824AE0DD
:10157000BE016F5F7F4F90E00E94EB17BE016F5F6F
:101580007F4FC8010E946B0A29960FB6F894DEBF00
:101590000FBECDBFDF91CF911F910F910895EF92B4
:1015A000FF920F931F93CF93DF93CDB7DEB7A19731
:1015B0000FB6F894DEBF0FBECDBF7C01CB01BA01E0
:1015C000F7011182108213821282158214828E0119
:1015D0000F5F1F4F22E044E00E946417009789F0DC
:1015E000BC01C7010E946B0AA1960FB6F894DEBF3A
:1015F0000FBECDBFDF91CF911F910F91FF90EF9064
:101600000895C7010E944608EFCFFC0111821082A5
:101610001382128215821482FB0101900020E9F7E7
:101620003197AF01461B570B0C944A0A0F931F9337
:10163000CF93DF9300D0CDB7DEB78C016BEA71E0BA
:101640000E94050B0E94200397FD0EC08A30910571
:1016500059F089831A8241E050E0BE016F5F7F4FED
:10166000C8010E94F509EECFC8010F900F90DF91DD
:10167000CF911F910F910895CF93DF9300D000D0A9
:1016800000D0CDB7DEB783E996E00E948101892BB7
:1016900049F0CE0101960E94160BCE0101960E94E0
:1016A0005808F1CF26960FB6F894DEBF0FBECDBF17
:1016B000DF91CF91089585ED8093BC0080916B06FA
:1016C00090916C06A0916D06B0916E060796A11DD3
:1016D000B11D23E0B695A795979587952A95D1F7E3
:1016E0002091BC0024FD03C010926906089540912A
:1016F0006B0650916C0660916D0670916E06452BDD
:10170000462B472B69F30097A105B10541F02AE26A
:101710002A95F1F700C00197A109B109E1CF8091A5
:101720006A060C94C9031F93CF93DF93EC01162F25
:101730000E94771B181739F0612FCE01DF91CF91EE
:101740001F910C947F1BDF91CF911F910895CF9330
:10175000C82F833168F4E82FF0E0E65FFE4F808108
:101760000E94F4086C2F82E090E0CF910C94930BD0
:101770008BEE0E94F408C2E0F5CFCF93C82F8430DF
:1017800070F4E82FF0E0EA5FFE4F808190E00E9465
:1017900004096C2F83E090E0CF910C94930B81E0CF
:1017A00090E00E940409C1E0F4CF0C94771B84E020
:1017B00090E00E94D50B80931B0685E090E00E948C
:1017C000D50B80931A0686E090E00E94D50B80939B
:1017D000190687E090E00E94D50B8093180688E0F8
:1017E00090E00E94D50B8093170689E090E00E945C
:1017F000D50B809316068AE090E00E94D50B80936B
:1018000015068BE090E00E94D50B809314068CE0C7
:1018100090E00E94D50B809313068DE090E00E942B
:10182000D50B809312068EE090E00E94D50B80933A
:1018300011068FE090E00E94D50B8093100608956A
:101840002F924F925F926F927F928F929F92AF9260
:10185000BF92CF92DF92EF92FF920F931F93CF939D
:10186000DF93CDB7DEB7EC970FB6F894DEBF0FBEAF
:10187000CDBF0E943C0B8E01055D1F4FCE0101962E
:101880007C01222423946EEE71E0C8010E94050BB6
:1018900062EF71E0C7010E94050BB801C7010E9409
:1018A000370A0E94CB05C7010E945808C8010E9450
:1018B000580888EF91E00E941B0683E092E00E94A6
:1018C0001B0681E192E00E941B068FE192E00E94DC
:1018D000340680911C06882309F4ADC086E392E0AB
:1018E0000E941B0681E090E00E94D50B863008F034
:1018F000A5C094E0899FF0011124E359FE4F808038
:101900009180A280B380682F81E090E00E94930BC9
:10191000B501A401C8010E94750A6FE372E0C70116
:101920000E94050BB801C7010E94370A0E94CB052F
:10193000C7010E945808C8010E94580882E090E040
:101940000E94D50B24E0829FF0011124EF5DFE4F31
:101950004081518162817381C8010E94CF0A6EE487
:1019600072E0C7010E94050BB801C7010E94370A47
:1019700064E672E00E94210A0E94CB05C7010E9422
:101980005808C8010E94580883E090E00E94D50BD7
:10199000E82FF0E0E35EFE4F6081C8010E94A20ADA
:1019A00068E672E0C7010E94050BB801C7010E94FA
:1019B000370A62E772E00E94210A0E94CB05C70144
:1019C0000E945808C8010E94580884E792E00E94CB
:1019D0001B068EE792E00E941B068FE892E00E94B1
:1019E0001B0683E996E00E948101892BD1F3C70190
:1019F0000E94160BC7010E940B01082E000C990BC8
:101A00000E942A1FD82E8093C205C7010E94580841
:101A100085E3D81609F4BDC38D15C4F093E3D91638
:101A200009F45AC39D150CF461C3E1E3DE16A4F575
:101A30008CE095E0D4CF8BE392E052CF90E8892EF2
:101A400095E2992EA12CB12C80E05DCFF7E3DF1653
:101A500009F44AC4DF160CF4FEC328E3D21609F4D5
:101A600045C483E5D812E4CFEC960FB6F894DEBFF8
:101A70000FBECDBFDF91CF911F910F91FF90EF90DF
:101A8000DF90CF90BF90AF909F908F907F906F909E
:101A90005F904F902F90089567E972E0C7010E9410
:101AA000050B69E972E0CE0107960E94050B6CE90F
:101AB00072E0CE010D960E94050B6FE972E0CE0137
:101AC00043960E94050B62EA72E0CE0149960E949D
:101AD000050B65EA72E0CE014F960E94050B68EA9D
:101AE00072E0CE0185960E94050B0E94D70B8BEA0F
:101AF00092E00E9434068091C2050E94100281E0AB
:101B000092E00E941B068091C2058133C9F18233A5
:101B100009F4CDC08AE394E00E941B0683E996E0B5
:101B20000E948101892BD1F3CE01C7960E94160B2A
:101B3000CE01C7960E942E09CE01C7960E941809B1
:101B4000ABACBCAC6701F60184819581A816B906DF
:101B500041F4B601CE01C7960E94A009892B09F471
:101B60006DC4F6E0CF0ED11C0C151D0561F78CE09D
:101B700095E00E941B06CE01C7960E945808CECF62
:101B800060911B06C8010E94A20A6FEB72E0CE01B1
:101B9000C1960E94050BB801CE01C1960E94370A7A
:101BA0000E94CB05CE01C1960E945808C8010E9430
:101BB000580860911A06C8010E94A20A64EC72E0FB
:101BC000CE01C1960E94050BB801CE01C1960E94BC
:101BD000370A0E94CB05CE01C1960E945808C80161
:101BE0000E94580860911906C8010E94A20A69EC77
:101BF00072E0CE01C1960E94050BB801CE01C196DC
:101C00000E94370A0E94CB05CE01C1960E94580857
:101C1000C8010E94580860911806C8010E94A20AD3
:101C20006EEC72E0CE01C1960E94050BB801CE01A8
:101C3000C1960E94370A0E94CB05CE01C1960E9430
:101C40005808C8010E94580860911706C8010E94F0
:101C5000A20A63ED72E0CE01C1960E94050BB801A5
:101C6000CE01C1960E94370A0E94CB05CE01C196D3
:101C70000E945808C8010E94580860911606C801C1
:101C80000E94A20A68ED72E0CE01C1960E94050B87
:101C9000B801CE01C1960E94370A0E94CB05CE0141
:101CA000C1960E945808C8010E94580833CF60911D
:101CB0001506C8010E94A20A6FEB72E0CE01C19620
:101CC0000E94050BB801CE01C1960E94370A0E94FE
:101CD000CB05CE01C1960E945808C8010E94580841
:101CE00060911406C8010E94A20A64EC72E0CE0161
:101CF000C1960E94050BB801CE01C1960E94370A19
:101D00000E94CB05CE01C1960E945808C8010E94CE
:101D1000580860911306C8010E94A20A69EC72E09B
:101D2000CE01C1960E94050BB801CE01C1960E945A
:101D3000370A0E94CB05CE01C1960E945808C801FF
:101D40000E94580860911206C8010E94A20A6EEC17
:101D500072E0CE01C1960E94050BB801CE01C1967A
:101D60000E94370A0E94CB05CE01C1960E945808F6
:101D7000C8010E94580860911106C8010E94A20A79
:101D800063ED72E0CE01C1960E94050BB801CE0151
:101D9000C1960E94370A0E94CB05CE01C1960E94CF
:101DA0005808C8010E9458086091100668CF83E95E
:101DB00096E00E945F0149C0DD24D39474C0812C59
:101DC000912C540187C08091C205813351F0823338
:101DD00009F4FDC00E943C0BCE01C7960E94580832
:101DE00084CE69E972E0CE01C7960E948B098823F0
:101DF00009F47EC049E952E060911A06882D0E94DC
:101E0000C307882331F0682D84E090E00E94930B93
:101E1000E1CF0E943C0B6DED72E0C8010E94050B02
:101E2000BE01695C7F4FC8010E94370A61EC74E013
:101E30000E94210A0E944701C8010E94580883E9B4
:101E400096E00E948101892BD1F30E945203FC018C
:101E500097FDB5CF8D32910521F0C0970A9708F014
:101E6000A6CF812C912C5401D12CE130F105D9F071
:101E7000ED32F10509F4A0CFCF01C0970A9798F48D
:101E8000AAE0B0E0A50194010E948D1B4F01FF0F55
:101E9000AA08BB08860E971EA81EB91E20E3821A48
:101EA0009108A108B10883E996E00E945F010E94B1
:101EB0005203FC01C0970A97C0F2E130F105A9F284
:101EC000DD2041F0B094A09490948094811C911CEA
:101ED000A11CB11CC4010E9418088FEF8816910440
:101EE00009F008F470CF83EF92E00E941B0693CFB5
:101EF0006CE972E0CE01C7960E948B09882371F0CD
:101F00004CE952E0682D80911B060E94C30788238C
:101F100009F47FCF682D85E090E078CF6FE972E01B
:101F2000CE01C7960E948B09882371F04FE952E0D9
:101F300060911806882D0E94C307882309F469CF91
:101F4000682D86E090E062CF62EA72E0CE01C7962B
:101F50000E948B09882371F042EA52E0682D80913B
:101F600019060E94C307882309F453CF682D87E020
:101F700090E04CCF65EA72E0CE01C7960E948B09D3
:101F8000882371F045EA52E060911606882D0E9480
:101F9000C307882309F43DCF682D88E090E036CF51
:101FA00068EA72E0CE01C7960E948B09882309F483
:101FB00011CF48EA52E0682D809117060E94C307AE
:101FC000882309F426CF682D89E090E01FCF69E9C6
:101FD00072E0CE01C7960E948B09882371F049E90F
:101FE00052E060911406882D0E94C307882309F4EB
:101FF00010CF682D8AE090E009CF6CE972E0CE0145
:10200000C7960E948B09882371F04CE952E0682D35
:10201000809115060E94C307882309F4FACE682D23
:102020008BE090E0F3CE6FE972E0CE01C7960E949C
:102030008B09882371F04FE952E060911206882DD8
:102040000E94C307882309F4E4CE682D8CE090E059
:10205000DDCE62EA72E0CE01C7960E948B0988232A
:1020600071F042EA52E0682D809113060E94C30786
:10207000882309F4CECE682D8DE090E0C7CE65EAC6
:1020800072E0CE01C7960E948B09882371F045EA61
:1020900052E060911006882D0E94C307882309F43E
:1020A000B8CE682D8EE090E0B1CE68EA72E0CE0145
:1020B000C7960E948B09882309F48CCE48EA52E027
:1020C000682D809111060E94C307882309F4A1CED0
:1020D000682D8FE090E09ACE60911C066225609397
:1020E0001C0690E080E00E94930BCDCB86E093E04D
:1020F0000E941B0689E593E00E94340683E996E07E
:102100000E948101892BD1F3C7010E94160BC701E0
:102110000E940B01082E000C990B0E942A1FD82E3A
:10212000C7010E9458088D2D0E9410020E94C70509
:10213000E3E5DE1609F4A7CB6FEC6D0D663018F001
:1021400085E693E0D5CF24E0629FF0011124E359A6
:10215000FE4FA080B180C280D38081E090E00E94D9
:10216000930BB601A501C7010E94750A63E773E0EE
:10217000C8010E94050BB701C8010E94370A0E94DE
:10218000CB05C8010E945808C7010E9458080E9448
:10219000270689E893E00E941B0689E593E00E94E8
:1021A000340683E996E00E948101892BD1F3CE01A8
:1021B000C1960E94160BCE01C1960E942E09CE0137
:1021C000C1960E94CB05CE01C1960E94180967E90D
:1021D00072E0CE01C1960E948B09811137C089A996
:1021E0009AA960E0009711F00E948217DD24DA942A
:1021F000D60E82E18D1548F485E693E00E941B0619
:10220000CE01C1960E945808C8CF8D2D0E94A70B01
:1022100094E0D99EF0011124EF5DFE4F4081518181
:1022200062817381C7010E94CF0A63E474E0C80130
:102230000E94050BB701C8010E94370A0E94CB0516
:10224000C8010E945808C7010E945808CE01C196D3
:102250000E94580818CB8CE594E00E941B0689E583
:1022600093E00E94340683E996E00E948101892B65
:10227000D1F3C7010E94160BC7010E940B01082E63
:10228000000C990B0E942A1FD82EC7010E945808E3
:102290008D2D0E9410020E94C705E3E5DE1609F4A9
:1022A000F2CAFFECDF0E23E02D1518F485E693E06B
:1022B000D4CF8D2D0E94BD0BED2DF0E0E35EFE4FDF
:1022C0006081C7010E94A20A6AE874E0C8010E9406
:1022D000050BB701C8010E94370A0E94CB05C8014F
:1022E0000E945808C701B4CF0E94270687E994E0EE
:1022F0000E9434068BE0D82E0E94140364197509DD
:1023000086099709683E734081059105B0F1DA941A
:10231000D7FC2FC01CA61BA61EA61DA618AA1FA66A
:102320004AE0B7018D2D0D2C000C990B0E94A917C6
:10233000B701C8010E946B0A1A8219821C821B8293
:102340001E821D826BA57CA56115710529F04FA524
:1023500058A9C7010E944A0A66EF71E0C7010E94AE
:10236000210A0E944701C7010E945808C8010E9423
:1023700058080E9414032B013C0183E996E00E9457
:102380008101892B11F4D7FEB7CF83E996E00E9433
:102390008101892B39F40E94C70584EC94E00E94E6
:1023A0001B0671CAC7010E94160BC7010E940B01D0
:1023B000082E000C990B0E942A1FD82EC7010E94DC
:1023C00058080E94C705F9E5DF12E7CF1CA61BA637
:1023D0001EA61DA618AA1FA64AE0B70180E094E039
:1023E0000E94EB17B701C8010E946B0A6AED74E006
:1023F000C7010E94050BB801C7010E94370A69EEA8
:1024000074E00E94210A0E94CB05C7010E9458086F
:10241000C8010E94580810E000E06FEFC8010E9458
:10242000930B0F5F1F4F011524E01207B1F783EFE5
:1024300094E00E941B060E94270616CB8D819E8188
:10244000A816B90609F0E7CCB701CE01C7960E94DD
:10245000A009892B09F0DFCCCE01C7960E9458084D
:10246000680196E0C91AD108C6010E945808EC1408
:10247000FD04B9F708CAAF92BF92CF92DF92EF92F4
:10248000FF920F931F93CF93DF9300D000D000D023
:10249000CDB7DEB78CE195E00E941B060E94600874
:1024A000B82E01E0B11054C080911C0660E081118B
:1024B00001C061E085E00E945E0283E996E00E942F
:1024C0008101892BC1F0CE0101960E94160BCE012D
:1024D00001960E940B01082E000C990B0E942A1FE6
:1024E0005C01CE0101960E94580823E5A216B104B2
:1024F00011F40E94200CC114D104E104F104E1F4B0
:1025000011E0102781E395E00E941B0680911C06D4
:10251000612F811101C0602F86E00E945E02612F51
:102520008DE00E945E020E946008B82E0E94140393
:102530006B017C01012FB6CF0E9414036C197D0939
:102540008E099F09643F714081059105C8F6ACCFA3
:102550008BE595E00E941B0680911C0661E08111CD
:1025600001C060E086E00E945E0261E08DE00E94B2
:102570005E0226960FB6F894DEBF0FBECDBFDF9188
:10258000CF911F910F91FF90EF90DF90CF90BF9070
:10259000AF9008951F920F920FB60F9211242F93B0
:1025A0003F934F935F936F937F938F939F93AF93DB
:1025B000BF93EF93FF9383E996E00E94A101FF91FF
:1025C000EF91BF91AF919F918F917F916F915F91AB
:1025D0004F913F912F910F900FBE0F901F90189524
:1025E0001F920F920FB60F9211242F938F939F93E8
:1025F000EF93FF93E091A306F091A4068081E09110
:10260000A906F091AA0682FD1BC090818091AC06BC
:102610008F5F8F732091AD06821741F0E091AC0679
:10262000F0E0ED56F94F958F8093AC06FF91EF9156
:102630009F918F912F910F900FBE0F901F90189523
:102640008081F4CF1F920F920FB60F9211242F9317
:102650003F938F939F93AF93BF9380910806909180
:102660000906A0910A06B0910B063091070623E0F7
:10267000230F2D3758F50196A11DB11D2093070694
:102680008093080690930906A0930A06B0930B0660
:1026900080910C0690910D06A0910E06B0910F0648
:1026A0000196A11DB11D80930C0690930D06A09379
:1026B0000E06B0930F06BF91AF919F918F913F91FE
:1026C0002F910F900FBE0F901F90189526E8230FA3
:1026D0000296A11DB11DD2CF1F920F920FB60F927D
:1026E00011242F933F934F935F936F937F938F9317
:1026F0009F93AF93BF93EF93FF938091B900887F2F
:10270000803609F44AC0F0F5883209F4A7C018F5FC
:10271000803109F49BC0B8F4882309F4F9C08830EB
:1027200009F494C0FF91EF91BF91AF919F918F9168
:102730007F916F915F914F913F912F910F900FBEBD
:102740000F901F901895883109F488C0803251F796
:102750008093670614C0803409F49DC040F4803330
:10276000B9F38833F9F68093670685ECB0C08035FD
:1027700009F485C0883509F496C0883499F60E941A
:102780005B0BD0CF883909F48CC038F5883729F035
:1027900050F4883611F0803729F683E0809369067B
:1027A0001092060657C0883809F47BC0803919F0AA
:1027B000803809F0B7CF80910606803208F071C0EA
:1027C000E091060681E08E0F809306068091BB00A3
:1027D000F0E0EA51FA4F80833DC0803B39F0E0F4ED
:1027E000803A09F479C0883A09F09CCF84E080935C
:1027F00069061092E5051092E405E0911F06F0913C
:10280000200609958091E40581110FC081E0809335
:10281000E4051092C40509C0803C09F4A6CF883CA9
:1028200009F4A3CF883B09F07DCFE091E50581E075
:102830008E0F8093E505F0E0EC53FA4F8081809392
:10284000BB009091E5058091E40529C08091440684
:102850008093BB0085EC8093BC0064CF90916606AA
:1028600080916506981758F5E091660681E08E0F15
:1028700080936606F0E0EB5BF94F8081E9CFE09151
:10288000660681E08E0F809366068091BB00F0E0C3
:10289000EB5BF94F808390916606809165069817EF
:1028A000C8F285E8D8CFE091660681E08E0F80936C
:1028B00066068091BB00F0E0EB5BF94F808380916E
:1028C000680681115CCF81E08093430684EA80939F
:1028D000BC001092690626CF85EC8093BC00109254
:1028E000690680910606803230F4E0910606F0E039
:1028F000EA51FA4F10826091060670E0E0911D06E1
:10290000F0911E0686EE95E00995109206060ACF14
:102910001092670634CFE3E9F6E01382128288EE64
:1029200093E0A0E0B0E084839583A683B78329E891
:1029300031E03183208325EC30E03587248724EC97
:1029400030E03787268720EC30E0318B208B21EC7C
:1029500030E0338B228B22EC30E0358B248B26EC5D
:1029600030E0378B268B118E128E138E148EE0E39F
:10297000F7E01382128284839583A683B7838BE961
:1029800091E091838083ECE3F7E011821082128260
:102990008FEF8583148213820895789484B58260C2
:1029A00084BD84B5816084BD85B5826085BD85B5F3
:1029B000816085BD80916E00816080936E00109271
:1029C00081008091810082608093810080918100EC
:1029D000816080938100809180008160809380007D
:1029E0008091B10084608093B1008091B0008160DB
:1029F0008093B00080917A00846080937A00809107
:102A00007A00826080937A0080917A00816080935E
:102A10007A0080917A00806880937A001092C100D9
:102A200061E086E00E948C0261E085E00E948C02F9
:102A300062E087E00E948C020E94D70B90E080E069
:102A40000E94D50B91E0811101C090E090931C068B
:102A500081E090E00E94D50B863008F0EAC144E0A6
:102A6000849FF0011124E359FE4FC080D180E280A1
:102A7000F380682F81E090E00E94930B60E079E0A2
:102A80008DE390E0A70196010E940C1D21503109B1
:102A9000410951095695479537952795E091A30629
:102AA000F091A40682E08083C11481EED806E1048F
:102AB000F10421F0211590E13907A8F0E091A30677
:102AC000F091A406108260E874E88EE190E0A7011E
:102AD00096010E940C1D215031094109510956955A
:102AE000479537952795E0919F06F091A006308392
:102AF000E091A106F091A20620831092AB06E0912E
:102B0000A706F091A80686E08083E091A506F091E3
:102B1000A606808180618083E091A506F091A606DB
:102B2000808188608083E091A506F091A60680816F
:102B300080688083E091A506F091A60680818F7D54
:102B4000808382E090E00E94D50B0E94A70B83E077
:102B500090E00E94D50B0E94BD0B0E943B1283E9BE
:102B600096E00E948101892B71F083E996E00E9432
:102B70005F01082E000C990B0E942A1F83359105D6
:102B800011F40E94200CE1E0E0936F06F9E2F0936B
:102B90009106109270061092920681E00E94EA035C
:102BA000882379F088E695E00E941B0680911C0638
:102BB00060E0811101C061E086E00E945E020E9437
:102BC0003B1280911C0661E0811101C060E086E04B
:102BD0000E945E0280913E07811102C00E9460083F
:102BE00084E10E94A0078C0186E10E94A007EC010D
:102BF00088E10E94A0077C018AE10E94A0075C0195
:102C00008091410720E031E0281B31094CE0429FD0
:102C1000C001439F900D112465E070E00E94F81CF4
:102C20006F5F7F4F072E000C880B990B0E94E2020A
:102C30000115110509F405C1B80190E080E00E947A
:102C4000551A2B013C01BE0190E080E00E94551A0C
:102C5000A30192010E944B1C20E030E04FE753E4B7
:102C60000E94B61A8B01D82FC92F4B011E01B70144
:102C700090E080E00E94551AA30192010E944B1C33
:102C800020E030E04FE753E40E94B61A6B017C016C
:102C9000B50190E080E00E94551AA30192010E94C4
:102CA0004B1C20E030E04FE753E40E94B61A2B01A2
:102CB0003C0120E030E0A901B8018D2F9C2F0E943B
:102CC000F31C87FDC8C020E030E040E05FE3B401C2
:102CD000832D922D0E94DF1B0E94BD1CC62F20E079
:102CE00030E0A901C701B6010E94F31C20E030E0EA
:102CF00040E05FE387FDB9C0C701B6010E94DF1B5A
:102D00000E94BD1CD62F20E030E0A901C301B20112
:102D10000E94F31C20E030E040E05FE387FDAAC0A2
:102D2000C301B2010E94DF1B0E94BD1CF62EEFEA18
:102D3000F1E08491EBE9F1E01491E7E8F1E004912E
:102D4000002309F49CC081110E943502E02FF0E0BD
:102D5000EE0FFF1FEA58FE4FA591B4918C911823F6
:102D600091E080E009F490E0092F182F8DE895E0BC
:102D70000E94340681E090E00115110511F482E013
:102D800090E00E94180886E995E00E9434068C2F96
:102D90000E94BC078AE995E00E9434068D2F0E94AC
:102DA000BC078FE995E00E9434068F2D0E94BC0776
:102DB0000E94C70584EA95E00E943406012B09F4BD
:102DC00061C080911B06C81708F473C080911A0671
:102DD0008C1708F46EC080911906D81708F469C0E2
:102DE000809118068D1708F464C080911706F816B4
:102DF00008F45FC0809116068F1508F45AC08DEA5A
:102E000095E00E941B0680911C06882309F45AC095
:102E100061E085E00E945E0280E090E0892B09F489
:102E20009ECE0E948D01882309F499CE0E94000055
:102E300096CE70E8C72E75E2D72EE12CF12C80E0FB
:102E400018CE412C512C320173016201812C912C3E
:102E5000312C212C38CF20E030E040E05FE3B80196
:102E60008D2F9C2F0E94DE1B37CFC701B6010E9419
:102E7000DE1B46CFC301B2010E94DE1B55CF10E01E
:102E800000E074CF80911506C81798F08091140661
:102E90008C1778F080911306D81758F0809112069D
:102EA0008D1738F080911106F81618F080911006F1
:102EB000A3CF85EB95E00E941B0680911C0688231A
:102EC00009F4A6CF60E0A5CFEF920F931F93CF93A5
:102ED000DF93E80134E047FD34E1042E000C550B8C
:102EE00057FF03C0519541955109E32E022F242F1E
:102EF000AE010E940518CE01DF91CF911F910F9175
:102F0000EF9008951F93FC0199278827BC01E8944E
:102F100011911032E9F3193010F01E30C8F31B3252
:102F200051F01D3249F4689406C00E94B417610F35
:102F3000711D811D911D119110531A30B0F33EF493
:102F400090958095709561957F4F8F4F9F4F1F9102
:102F50000895BB274A3031F4992322F4BDE29095BD
:102F600081959F4F0C94EC17592F482F372F262F00
:102F7000660F771F881F991F660F771F881F991F7D
:102F8000620F731F841F951F660F771F881F991F7D
:102F90000895BB27FA01A62F6217710581059105D7
:102FA000330B30FB66F0AA27660F771F881F991F27
:102FB000AA1FA21710F0A21B63953850A9F7A05DB5
:102FC000AA3308F0A95DA19336F7B111B19310822D
:102FD000CA010C94451ABB27FB015527AA27880F65
:102FE000991FAA1FA41710F0A41B83955051B9F77D
:102FF000A05DAA3308F0A95DA193009779F7B111FC
:10300000B1931192CB010C94451AA9E0B0E0EBE02A
:10301000F8E10C949E1B6A01F22EB02E102FFBE3F8
:10302000AF2EA01608F41BE31F5F012F27E0AE01AF
:103030004F5F5F4F0E946419BC018981982F99707E
:10304000913009F43FC09BE2E1FC04C09E2D9170D9
:10305000E0FC3AC05E2D5071E82FE87083FF46C057
:1030600084E0911101C083E0EF2DE81B8F1508F07B
:10307000E0E0D6018E2F20E2552351F1992329F06B
:10308000D6019C93C60101966C0196012D5F3F4FBE
:10309000E2FE24C08EE4D6018C9391E411969C93B9
:1030A000119712968C93D9018E2F90E281111BC03B
:1030B000E20FF32FF11D10828EEF9FEF2996ECE0C7
:1030C0000C94BA1B9DE2C6CF90E2C4CF2D938150E1
:1030D0008111FCCFCE0ED11CE0E0D0CF8EE6D60120
:1030E0008C9391E6DBCF9D938150E0CF482F4470C5
:1030F00082FF3DC084E0911101C083E08F1510F480
:10310000EF2DE81BD6018E2F20E2552309F19923DC
:1031100029F0D6019C93C60101966C0196012D5FA2
:103120003F4FE2FE1BC089E4D6018C938EE41196DA
:103130008C93119786E412968C93D9018E2F90E28E
:10314000882309F4B5CF9D938150FACF2D938150F8
:103150008111FCCFCE0ED11CE0E0D9CF89E6D6019B
:103160008C938EE611968C93119786E6E4CF9B01A3
:1031700077FF02C030E020E0A1E0B0E0911102C092
:10318000B0E0A0E0F9013196AE0FBF1F8B2C912C5F
:10319000BB2009F461C05401EFEFAE1ABE0AAA0DBC
:1031A000BB1DFA161B0619F014F04F2D4A1B5111C6
:1031B00088C0E3FC59C07601A42FB0E2A1114FC032
:1031C000C40ED11C992309F45BC040E0D6011196CE
:1031D000F60190836D01552309F448C0012F060FB5
:1031E0009A81582F507184FF03C0913309F4015024
:1031F00010160CF047C0093008F008E0EEE2FE2E91
:103200005B01A01AB10885019194819491082F3F28
:10321000320729F4D601FC92F60131966F0162174C
:10322000730794F1021713077CF5DB01A21BB30BA4
:10323000AA24A394B12CAC0EBD1EAA0DBB1D1196E1
:103240008C9121503109D601119628153905F4F0D9
:10325000F60180836D01DBCFB12CA12CA0CFF7014B
:10326000B1937F01A150AACF9111B0CFD601942F75
:1032700050E302C05D9391509111FCCFC40ED11C5C
:1032800040E0ACCF01E0BACF80E3DBCF6217730739
:1032900031F4963388F4953311F4552369F0F6012F
:1032A0008083FD01842F90E2811108C0A40FB11D1D
:1032B0001C9290E080E002CF81E3F1CF91938150A6
:1032C000F3CF911183CF8ACF283008F027E033273E
:1032D000DA01990F311D87FD916000966105710536
:1032E00039F432602E5F3D9330E32A95E1F708957B
:1032F0009F3F30F080387105610509F03C5F3C5F0D
:103300003D93913008F08068911DDF93CF931F9318
:103310000F93FF92EF92192F987F9695E92F96952C
:103320009695E90FFF27EE53FF4F99273327EE2499
:10333000FF24A701E70105900894079428F4360FAD
:10334000E71EF81E491F511D660F771F881F991F22
:103350000694A1F70590079428F4E70EF81E491F7C
:10336000561FC11D770F881F991F661F0694A1F76E
:103370000590079428F4F80E491F561FC71FD11D4A
:10338000880F991F661F771F0694A1F70590079471
:1033900020F4490F561FC71FD81F990F661F771FAC
:1033A000881F0694A9F784911095177041F0D6955F
:1033B000C79557954795F794E7941A95C1F7E8E6AE
:1033C000F0E068941590159135916591959105906F
:1033D0007FE27395E118F10A430B560BC90BD00934
:1033E000C0F7E10CF11E431F561FC91FD01D7EF40C
:1033F000703311F48A95E6CFE894015030F0080F4D
:103400000AF40027021708F4202F2395022F7A339D
:1034100028F079E37D932A95E9F710C07D932A95EA
:1034200089F6069497956795379517951794E1183F
:10343000F10A430B560BC90BD00998F023957E91E6
:1034400073957A3308F070E37C932013B8F77E917C
:1034500070617D9330F0839571E37D9370E32A95DD
:10346000E1F71124EF90FF900F911F91CF91DF9121
:10347000992787FD9095089591110C94231B803214
:1034800019F089508550C8F70895DC01FC01672FB9
:1034900071917723E1F7329704C07C916D9370832B
:1034A0006291AE17BF07C8F30895E89409C097FB6F
:1034B0003EF490958095709561957F4F8F4F9F4F0B
:1034C0009923A9F0F92F96E9BB279395F69587954F
:1034D00077956795B795F111F8CFFAF4BB0F11F412
:1034E00060FF1BC06F5F7F4F8F4F9F4F16C08823B9
:1034F00011F096E911C0772321F09EE8872F762FEF
:1035000005C0662371F096E8862F70E060E02AF02F
:103510009A95660F771F881FDAF7880F969587951B
:1035200097F90895990F0008550FAA0BE0E8FEEFF0
:1035300016161706E807F907C0F012161306E40777
:10354000F50798F0621B730B840B950B39F40A2670
:1035500061F0232B242B252B21F408950A2609F44E
:10356000A140A6958FEF811D811D08950E94C91A63
:103570000C943D1B0E942F1B38F00E94361B20F03C
:10358000952311F00C94261B0C942C1B11240C94E5
:10359000711B0E944E1B70F3959FC1F3950F50E075
:1035A000551F629FF001729FBB27F00DB11D639FF5
:1035B000AA27F00DB11DAA1F649F6627B00DA11D9B
:1035C000661F829F2227B00DA11D621F739FB00D41
:1035D000A11D621F839FA00D611D221F749F3327B1
:1035E000A00D611D231F849F600D211D822F762F4A
:1035F0006A2F11249F5750409AF0F1F088234AF027
:10360000EE0FFF1FBB1F661F771F881F9150504092
:10361000A9F79E3F510580F00C94261B0C94711B5A
:103620005F3FE4F3983ED4F3869577956795B79519
:10363000F795E7959F5FC1F7FE2B880F911D969533
:10364000879597F9089599278827089597F99F678F
:1036500080E870E060E008959FEF80EC089500241A
:103660000A941616170618060906089500240A94E7
:1036700012161306140605060895092E0394000C6D
:1036800011F4882352F0BB0F40F4BF2B11F460FFFC
:1036900004C06F5F7F4F8F4F9F4F089557FD905825
:1036A000440F551F59F05F3F71F04795880F97FB06
:1036B000991F61F09F3F79F08795089512161306C0
:1036C0001406551FF2CF4695F1DF08C016161706EF
:1036D0001806991FF1CF8695710561050894089524
:1036E000E894BB2766277727CB0197F90895F999C6
:1036F000FECF92BD81BDF89A992780B50895262FF7
:10370000F999FECF1FBA92BD81BD20BD0FB6F894C6
:10371000FA9AF99A0FBE019608950E94CF1BA59FB1
:10372000900DB49F900DA49F800D911D11240895BC
:103730002F923F924F925F926F927F928F929F92C1
:10374000AF92BF92CF92DF92EF92FF920F931F93AF
:10375000CF93DF93CDB7DEB7CA1BDB0B0FB6F89460
:10376000DEBF0FBECDBF09942A88398848885F84A0
:103770006E847D848C849B84AA84B984C884DF8011
:10378000EE80FD800C811B81AA81B981CE0FD11DF5
:103790000FB6F894DEBF0FBECDBFED010895A29F16
:1037A000B001B39FC001A39F700D811D1124911D15
:1037B000B29F700D811D1124911D08955058BB2793
:1037C000AA270E94F61B0C943D1B0E942F1B38F069
:1037D0000E94361B20F039F49F3F19F426F40C9414
:1037E0002C1B0EF4E095E7FB0C94261BE92F0E949E
:1037F0004E1B58F3BA17620773078407950720F02A
:1038000079F4A6F50C94701B0EF4E0950B2EBA2FEC
:10381000A02D0B01B90190010C01CA01A0011124D6
:10382000FF27591B99F0593F50F4503E68F11A1682
:10383000F040A22F232F342F4427585FF3CF469513
:1038400037952795A795F0405395C9F77EF41F1635
:10385000BA0B620B730B840BBAF09150A1F0FF0FFF
:10386000BB1F661F771F881FC2F70EC0BA0F621FEB
:10387000731F841F48F4879577956795B795F795DB
:103880009E3F08F0B0CF9395880F08F09927EE0F70
:103890009795879508950E945F1C0C943D1B0E948C
:1038A000361B58F00E942F1B40F029F45F3F29F08F
:1038B0000C94261B51110C94711B0C942C1B0E9410
:1038C0004E1B68F39923B1F3552391F3951B550BC8
:1038D000BB27AA2762177307840738F09F5F5F4FE3
:1038E000220F331F441FAA1FA9F335D00E2E3AF022
:1038F000E0E832D091505040E695001CCAF72BD03A
:10390000FE2F29D0660F771F881FBB1F261737078A
:103910004807AB07B0E809F0BB0B802DBF01FF27BC
:1039200093585F4F3AF09E3F510578F00C94261B58
:103930000C94711B5F3FE4F3983ED4F38695779522
:103940006795B795F7959F5FC9F7880F911D969575
:10395000879597F90895E1E0660F771F881FBB1FD1
:10396000621773078407BA0720F0621B730B840B7E
:10397000BA0BEE1F88F7E09508950E94C41C689466
:10398000B1110C94711B08950E94561B88F09F572B
:1039900098F0B92F9927B751B0F0E1F0660F771F73
:1039A000881F991F1AF0BA95C9F714C0B13091F069
:1039B0000E94701BB1E008950C94701B672F782F44
:1039C0008827B85F39F0B93FCCF38695779567952E
:1039D000B395D9F73EF490958095709561957F4F9A
:1039E0008F4F9F4F08950E94921A08F48FEF089509
:1039F00097FB072E16F4009407D077FD09D00E949C
:103A00002E1D07FC05D03EF4909581959F4F08959B
:103A1000709561957F4F0895A1E21A2EAA1BBB1BDA
:103A2000FD010DC0AA1FBB1FEE1FFF1FA217B3078A
:103A3000E407F50720F0A21BB30BE40BF50B661FA0
:103A4000771F881F991F1A9469F760957095809564
:103A500090959B01AC01BD01CF010895AA1BBB1B32
:103A600051E107C0AA1FBB1FA617B70710F0A61B7E
:103A7000B70B881F991F5A95A9F780959095BC019F
:103A8000CD010895EE0FFF1F0590F491E02D0994EC
:103A90000F931F93CF93DF938230910510F482E050
:103AA00090E0E0914407F091450730E020E0B0E07D
:103AB000A0E0309799F42115310509F44AC0281B7C
:103AC000390B24303105D8F58A819B816115710548
:103AD00089F1FB0193838283FE0111C040815181F2
:103AE0000281138148175907E0F04817590799F4E4
:103AF000109761F012960C93129713961C933296BE
:103B0000CF01DF91CF911F910F910895009344074A
:103B100010934507F4CF2115310551F04217530793
:103B200038F0A901DB019A01BD01DF01F801C1CF25
:103B3000EF01F9CF9093450780934407CDCFFE0165
:103B4000E20FF31F81939193225031093983288327
:103B5000D7CF2091420730914307232B41F4209186
:103B600002013091030130934307209342072091D3
:103B70000001309101012115310541F42DB73EB707
:103B80004091040150910501241B350BE09142073F
:103B9000F0914307E217F307A0F42E1B3F0B281701
:103BA000390778F0AC014E5F5F4F2417350748F0B6
:103BB0004E0F5F1F509343074093420781939193A9
:103BC0009FCFF0E0E0E09CCFCF93DF930097E9F048
:103BD000FC01329713821282A0914407B0914507ED
:103BE000ED0130E020E01097A1F420813181820FB7
:103BF000931F20914207309143072817390709F096
:103C000061C0F0934307E0934207DF91CF9108959D
:103C1000EA01CE17DF07E8F54A815B819E01411575
:103C20005105B1F7E901FB83EA8349915991C40F2A
:103C3000D51FEC17FD0761F4808191810296840FF6
:103C4000951FE90199838883828193819B838A836D
:103C5000F0E0E0E012968D919C9113970097B9F5F2
:103C60002D913C911197CD010296820F931F2091C7
:103C70004207309143072817390739F6309751F535
:103C80001092450710924407B0934307A093420750
:103C9000BCCFD383C28340815181840F951FC81745
:103CA000D90761F44E5F5F4F88819981480F591F92
:103CB000518340838A819B819383828321153105BF
:103CC00009F0B0CFF0934507E09344079ECFFD0184
:103CD000DC01C0CF13821282D7CFB0E0A0E0E3E7CF
:103CE000FEE10C949A1B8C01009751F4CB010E94C9
:103CF000481D8C01C801CDB7DEB7E0E10C94B61BBE
:103D0000FC01E60FF71F9C0122503109E217F3076F
:103D100008F49DC0D901CD91DC911197C617D70742
:103D200098F0C530D10530F3CE0104978617970778
:103D300008F3C61BD70B2297C193D1936D937C9345
:103D4000CF010E94E41DD6CF5B01AC1ABD0A4C0125
:103D50008C0E9D1EA0914407B0914507512C412C1B
:103D6000F12CE12C109731F5809142079091430797
:103D70008815990509F05CC04616570608F058C02A
:103D80008091000190910101009741F48DB79EB799
:103D90004091040150910501841B950BE817F90728
:103DA00008F055C0F0934307E0934207F90171838F
:103DB0006083A0CF8D919C91119712966C90129771
:103DC00013967C901397A815B90559F56C0142E03C
:103DD000C40ED11CCA14DB0420F1AC014A195B09E2
:103DE000DA011296159780F06282738251834083C4
:103DF000D9016D937C93E114F10471F0D70113960E
:103E0000FC93EE93129776CF22968C0F9D1FF901AB
:103E100091838083F301EFCFF0934507E09344074C
:103E200069CF4816590608F42C017D01D3019ACFB9
:103E3000CB010E94481D7C01009749F0AE01B801FA
:103E40000E94321FC8010E94E41D870153CF10E079
:103E500000E050CF9111089581568A5108F48052A4
:103E600085580895FB01DC0102C001900D9241507C
:103E70005040D8F70895FB01DC018D910190801925
:103E80000110D9F3990B0895FB01DC0101900D920B
:0A3E90000020E1F70895F894FFCF39
:103E9A0000004607800000010203FFF6EBE7D6CEDA
:103EAA00C0B5AD9C836A595138301F060001041011
:103EBA003C9A9919400000C0410000484200007035
:103ECA00420000CA420000F04200001A43000034D7
:103EDA00430000474300007043000096430000B4CB
:103EEA00430080C8430000D2430000F0430080F939
:103EFA00430000074400001644008019448025004E
:103F0A0000004B00000096000000E1000080240140
:103F1A000000C2010000000000C3011A015001158F
:103F2A000281015F01730100000000310504056090
:103F3A0005DA04FD04EA04DB040D0A005265626F27
:103F4A006F74696E672E2E2E0028002063616E6ED4
:103F5A006F74206265206C61726765722074686193
:103F6A006E2048002063616E6E6F74206265207354
:103F7A006D616C6C6572207468616E204C00322E23
:103F8A0033005665722E20005B53455454494E4700
:103F9A00535D00313A2059656C6C6F772043683164
:103FAA0000323A2059656C6C6F77204368320033CF
:103FBA003A2052656C617920547970653A204163E0
:103FCA0074697665200048696768004C6F77003429
:103FDA003A204261756420526174653A2000353A8C
:103FEA0020496E746567726174696F6E2054696DD9
:103FFA00653A2000206D7300363A204761696E3AAF
:10400A0020007800373A205265626F6F7400383AA0
:10401A0020466163746F7279205265736574005328
:10402A003A20457869740053004C52004852004CBB
:10403A0047004847004C42004842005B53455454ED
:10404A00494E47532F59656C6C6F77204368004C73
:10405A00523A200048523A20004C473A200048473A
:10406A003A20004C423A200048423A2000496E73F6
:10407A00657274206E65772076616C756520666F4F
:10408A0072200056616C7565206F7574206F66200A
:10409A0072616E6765005B53455454494E47532F0E
:1040AA004261756420526174655D0A313A2039367D
:1040BA0030300A323A2031393230300A333A20333A
:1040CA00383430300A343A2035373630300A353A07
:1040DA002037343838300A363A20313135323030E8
:1040EA000A533A204261636B0053656C65637469D5
:1040FA006F6E3A2000496E76616C696420696E7051
:10410A007574004261756420726174652063686128
:10411A006E67656420746F20005B53455454494EA2
:10412A0047532F496E746567726174696F6E2054C4
:10413A00696D655D0A31203A20322E340A32203AFE
:10414A002032340A33203A2035300A34203A2036D5
:10415A00300A35203A203130310A36203A203132BD
:10416A00300A37203A203135340A38203A2031389B
:10417A00300A39203A203139390A31303A2032347A
:10418A00300A31313A203330300A31323A2033366C
:10419A00300A31333A203430310A31343A20343259
:1041AA00300A31353A203438300A31363A20343937
:1041BA00390A31373A203534300A31383A20363024
:1041CA00300A31393A203631340A53203A204261D2
:1041DA00636B00496E746567726174696F6E2074EF
:1041EA00696D652073657420746F20005B534554B4
:1041FA0054494E47532F4761696E5D0A313A20315F
:10420A000A323A20340A333A2031360A343A20360E
:10421A00300A533A204261636B004761696E20732A
:10422A00657420746F20005B53455454494E4753BC
:10423A002F466163746F72792052657365745D0AE3
:10424A0041726520796F7520737572653F20285910
:10425A00293A2000466163746F727920726573652A
:10426A00742061626F727465640052657365747458
:10427A00696E6720616C6C20002062797465732E08
:10428A002E2E00466163746F7279207265736574AD
:10429A00207375636365737366756C00496E766126
:1042AA006C696420636F6D6D616E6400536574742C
:1042BA00696E672075702073656E736F722E2E2E6D
:1042CA000053656E736F72206572726F7220285385
:1042DA00656E642027532720746F20656E7465729B
:1042EA002073657474696E6773290053656E736F02
:1042FA00722072656164790053656E736F7220640F
:10430A006973636F6E6E65637465642E20526563AC
:10431A006F6E6E656374696E672E2E2E0043686138
:10432A006E6E656C200052203A0009473A20000957
:10433A00423A2000526573756C743A200059656CD4
:10434A006C6F770A004E6F2072656164696E670A46
:02435A00000061
:00000001FF
